{
  "contractName": "TestContract",
  "abi": [
    {
      "inputs": [],
      "stateMutability": "nonpayable",
      "type": "constructor"
    },
    {
      "anonymous": false,
      "inputs": [
        {
          "indexed": true,
          "internalType": "uint256",
          "name": "drugId",
          "type": "uint256"
        },
        {
          "indexed": false,
          "internalType": "string",
          "name": "name",
          "type": "string"
        },
        {
          "indexed": false,
          "internalType": "uint256",
          "name": "quantity",
          "type": "uint256"
        },
        {
          "indexed": false,
          "internalType": "uint256",
          "name": "price",
          "type": "uint256"
        }
      ],
      "name": "DrugAdded",
      "type": "event"
    },
    {
      "anonymous": false,
      "inputs": [
        {
          "indexed": true,
          "internalType": "uint256",
          "name": "drugId",
          "type": "uint256"
        },
        {
          "indexed": false,
          "internalType": "string",
          "name": "tracingType",
          "type": "string"
        },
        {
          "indexed": false,
          "internalType": "string",
          "name": "details",
          "type": "string"
        },
        {
          "indexed": false,
          "internalType": "string",
          "name": "date",
          "type": "string"
        }
      ],
      "name": "TracingInfoAdded",
      "type": "event"
    },
    {
      "inputs": [],
      "name": "ACTION_DELAY",
      "outputs": [
        {
          "internalType": "uint256",
          "name": "",
          "type": "uint256"
        }
      ],
      "stateMutability": "view",
      "type": "function",
      "constant": true
    },
    {
      "inputs": [],
      "name": "admin",
      "outputs": [
        {
          "internalType": "address",
          "name": "",
          "type": "address"
        }
      ],
      "stateMutability": "view",
      "type": "function",
      "constant": true
    },
    {
      "inputs": [
        {
          "internalType": "uint256",
          "name": "",
          "type": "uint256"
        },
        {
          "internalType": "uint256",
          "name": "",
          "type": "uint256"
        }
      ],
      "name": "drugTracings",
      "outputs": [
        {
          "internalType": "string",
          "name": "tracingType",
          "type": "string"
        },
        {
          "internalType": "string",
          "name": "tracingDetails",
          "type": "string"
        },
        {
          "internalType": "string",
          "name": "date",
          "type": "string"
        }
      ],
      "stateMutability": "view",
      "type": "function",
      "constant": true
    },
    {
      "inputs": [
        {
          "internalType": "uint256",
          "name": "",
          "type": "uint256"
        }
      ],
      "name": "drugs",
      "outputs": [
        {
          "internalType": "string",
          "name": "name",
          "type": "string"
        },
        {
          "internalType": "uint256",
          "name": "quantity",
          "type": "uint256"
        },
        {
          "internalType": "uint256",
          "name": "price",
          "type": "uint256"
        },
        {
          "internalType": "string",
          "name": "description",
          "type": "string"
        },
        {
          "internalType": "string",
          "name": "lastUpdateDate",
          "type": "string"
        },
        {
          "internalType": "string",
          "name": "currentTracingDetails",
          "type": "string"
        }
      ],
      "stateMutability": "view",
      "type": "function",
      "constant": true
    },
    {
      "inputs": [
        {
          "internalType": "address",
          "name": "",
          "type": "address"
        }
      ],
      "name": "lastActionTime",
      "outputs": [
        {
          "internalType": "uint256",
          "name": "",
          "type": "uint256"
        }
      ],
      "stateMutability": "view",
      "type": "function",
      "constant": true
    },
    {
      "inputs": [
        {
          "internalType": "uint256",
          "name": "drugId",
          "type": "uint256"
        }
      ],
      "name": "drugExists",
      "outputs": [
        {
          "internalType": "bool",
          "name": "",
          "type": "bool"
        }
      ],
      "stateMutability": "view",
      "type": "function",
      "constant": true
    },
    {
      "inputs": [
        {
          "internalType": "string",
          "name": "name",
          "type": "string"
        },
        {
          "internalType": "uint256",
          "name": "quantity",
          "type": "uint256"
        },
        {
          "internalType": "uint256",
          "name": "price",
          "type": "uint256"
        },
        {
          "internalType": "string",
          "name": "description",
          "type": "string"
        }
      ],
      "name": "addDrug",
      "outputs": [],
      "stateMutability": "nonpayable",
      "type": "function"
    },
    {
      "inputs": [
        {
          "internalType": "uint256",
          "name": "drugId",
          "type": "uint256"
        },
        {
          "internalType": "uint256",
          "name": "newQuantity",
          "type": "uint256"
        },
        {
          "internalType": "uint256",
          "name": "newPrice",
          "type": "uint256"
        },
        {
          "internalType": "string",
          "name": "newDescription",
          "type": "string"
        }
      ],
      "name": "updateDrug",
      "outputs": [],
      "stateMutability": "nonpayable",
      "type": "function"
    },
    {
      "inputs": [],
      "name": "getDrugCount",
      "outputs": [
        {
          "internalType": "uint256",
          "name": "",
          "type": "uint256"
        }
      ],
      "stateMutability": "view",
      "type": "function",
      "constant": true
    },
    {
      "inputs": [
        {
          "internalType": "uint256",
          "name": "index",
          "type": "uint256"
        }
      ],
      "name": "getDrug",
      "outputs": [
        {
          "internalType": "string",
          "name": "name",
          "type": "string"
        },
        {
          "internalType": "uint256",
          "name": "quantity",
          "type": "uint256"
        },
        {
          "internalType": "uint256",
          "name": "price",
          "type": "uint256"
        },
        {
          "internalType": "string",
          "name": "description",
          "type": "string"
        },
        {
          "internalType": "string",
          "name": "lastUpdateDate",
          "type": "string"
        },
        {
          "internalType": "string",
          "name": "currentTracingDetails",
          "type": "string"
        }
      ],
      "stateMutability": "view",
      "type": "function",
      "constant": true
    },
    {
      "inputs": [
        {
          "internalType": "uint256",
          "name": "drugId",
          "type": "uint256"
        },
        {
          "internalType": "string",
          "name": "tracingType",
          "type": "string"
        },
        {
          "internalType": "string",
          "name": "tracingDetails",
          "type": "string"
        },
        {
          "internalType": "string",
          "name": "date",
          "type": "string"
        }
      ],
      "name": "addTracingInfo",
      "outputs": [],
      "stateMutability": "nonpayable",
      "type": "function"
    },
    {
      "inputs": [
        {
          "internalType": "uint256",
          "name": "drugId",
          "type": "uint256"
        }
      ],
      "name": "getTracingInfo",
      "outputs": [
        {
          "internalType": "string[]",
          "name": "types",
          "type": "string[]"
        },
        {
          "internalType": "string[]",
          "name": "details",
          "type": "string[]"
        },
        {
          "internalType": "string[]",
          "name": "dates",
          "type": "string[]"
        }
      ],
      "stateMutability": "view",
      "type": "function",
      "constant": true
    },
    {
      "inputs": [],
      "name": "getAdmin",
      "outputs": [
        {
          "internalType": "address",
          "name": "",
          "type": "address"
        }
      ],
      "stateMutability": "view",
      "type": "function",
      "constant": true
    }
  ],
  "bytecode": "0x608060405234801561000f575f80fd5b505f80546001600160a01b031916331790556119478061002e5f395ff3fe608060405234801561000f575f80fd5b50600436106100cb575f3560e01c8063b8840d3d11610088578063d7ae67c711610063578063d7ae67c7146101c6578063f79d1d8c146101eb578063f851a440146101fe578063fca5e61e14610210575f80fd5b8063b8840d3d14610177578063bbb9289b1461019c578063c59d5144146101a4575f80fd5b806327f0bfd6146100cf57806357412d09146101015780636e9960c3146101235780636f9a3f121461014757806377e3dd5d1461015c578063a3be73e81461016f575b5f80fd5b6100ee6100dd366004611328565b60036020525f908152604090205481565b6040519081526020015b60405180910390f35b61011461010f366004611355565b610223565b6040516100f8939291906113b8565b5f546001600160a01b03165b6040516001600160a01b0390911681526020016100f8565b61015a610155366004611497565b6103f5565b005b61015a61016a366004611509565b610675565b6100ee601e81565b61018a61018536600461157c565b610913565b6040516100f896959493929190611593565b6001546100ee565b6101b76101b236600461157c565b610b95565b6040516100f89392919061164e565b6101db6101d436600461157c565b6001541190565b60405190151581526020016100f8565b61015a6101f9366004611686565b610f2d565b5f5461012f906001600160a01b031681565b61018a61021e36600461157c565b6110c9565b6002602052815f5260405f20818154811061023c575f80fd5b905f5260205f2090600302015f9150915050805f01805461025c906116d0565b80601f0160208091040260200160405190810160405280929190818152602001828054610288906116d0565b80156102d35780601f106102aa576101008083540402835291602001916102d3565b820191905f5260205f20905b8154815290600101906020018083116102b657829003601f168201915b5050505050908060010180546102e8906116d0565b80601f0160208091040260200160405190810160405280929190818152602001828054610314906116d0565b801561035f5780601f106103365761010080835404028352916020019161035f565b820191905f5260205f20905b81548152906001019060200180831161034257829003601f168201915b505050505090806002018054610374906116d0565b80601f01602080910402602001604051908101604052809291908181526020018280546103a0906116d0565b80156103eb5780601f106103c2576101008083540402835291602001916103eb565b820191905f5260205f20905b8154815290600101906020018083116103ce57829003601f168201915b5050505050905083565b5f546001600160a01b031633146104275760405162461bcd60e51b815260040161041e90611708565b60405180910390fd5b335f9081526003602052604090205461044290601e9061175e565b42116104605760405162461bcd60e51b815260040161041e90611777565b5f8451116104a75760405162461bcd60e51b81526020600482015260146024820152734e616d652063616e6e6f7420626520656d70747960601b604482015260640161041e565b5f83116104f25760405162461bcd60e51b81526020600482015260196024820152785175616e74697479206d75737420626520706f73697469766560381b604482015260640161041e565b5f821161053a5760405162461bcd60e51b81526020600482015260166024820152755072696365206d75737420626520706f73697469766560501b604482015260640161041e565b6040805160c081018252858152602080820186905281830185905260608201849052825180820184525f8082526080840191909152835191820190935282815260a08201526001805480820182559252805190916006027fb10e2d527612073b26eecdfd717e6a320cf44b4afac2b0732d9fcbe2b7fa0cf6019081906105c090826117f2565b506020820151600182015560408201516002820155606082015160038201906105e990826117f2565b50608082015160048201906105fe90826117f2565b5060a0820151600582019061061390826117f2565b50506001805461062392506118ae565b7f5b5755b262b850b85821421089fb7b9f0989af8fbdbb918ac09d7dd30087d212858585604051610656939291906118c1565b60405180910390a25050335f9081526003602052604090204290555050565b5f546001600160a01b0316331461069e5760405162461bcd60e51b815260040161041e90611708565b335f908152600360205260409020546106b990601e9061175e565b42116106d75760405162461bcd60e51b815260040161041e90611777565b6106e2846001541190565b6107205760405162461bcd60e51b815260206004820152600f60248201526e125b9d985b1a5908111c9d59c81251608a1b604482015260640161041e565b5f8351116107705760405162461bcd60e51b815260206004820152601c60248201527f54726163696e6720747970652063616e6e6f7420626520656d70747900000000604482015260640161041e565b5f8251116107c05760405162461bcd60e51b815260206004820152601760248201527f44657461696c732063616e6e6f7420626520656d707479000000000000000000604482015260640161041e565b5f8151116108075760405162461bcd60e51b8152602060048201526014602482015273446174652063616e6e6f7420626520656d70747960601b604482015260640161041e565b5f8481526002602090815260408083208151606081018352878152808401879052918201859052805460018101825590845291909220825160039092020190819061085290826117f2565b506020820151600182019061086790826117f2565b506040820151600282019061087c90826117f2565b5050508060018581548110610893576108936118e5565b905f5260205f20906006020160040190816108ae91906117f2565b5081600185815481106108c3576108c36118e5565b905f5260205f20906006020160050190816108de91906117f2565b50837fab8538092b2882a30d9c1793a592d762423281e5da9030cd52811fbaa4667db1848484604051610656939291906113b8565b60605f8060608060605f60018881548110610930576109306118e5565b905f5260205f2090600602019050805f0181600101548260020154836003018460040185600501858054610963906116d0565b80601f016020809104026020016040519081016040528092919081815260200182805461098f906116d0565b80156109da5780601f106109b1576101008083540402835291602001916109da565b820191905f5260205f20905b8154815290600101906020018083116109bd57829003601f168201915b505050505095508280546109ed906116d0565b80601f0160208091040260200160405190810160405280929190818152602001828054610a19906116d0565b8015610a645780601f10610a3b57610100808354040283529160200191610a64565b820191905f5260205f20905b815481529060010190602001808311610a4757829003601f168201915b50505050509250818054610a77906116d0565b80601f0160208091040260200160405190810160405280929190818152602001828054610aa3906116d0565b8015610aee5780601f10610ac557610100808354040283529160200191610aee565b820191905f5260205f20905b815481529060010190602001808311610ad157829003601f168201915b50505050509150808054610b01906116d0565b80601f0160208091040260200160405190810160405280929190818152602001828054610b2d906116d0565b8015610b785780601f10610b4f57610100808354040283529160200191610b78565b820191905f5260205f20905b815481529060010190602001808311610b5b57829003601f168201915b505050505090509650965096509650965096505091939550919395565b6060806060610ba5846001541190565b610be75760405162461bcd60e51b8152602060048201526013602482015272111c9d59c8191bd95cc81b9bdd08195e1a5cdd606a1b604482015260640161041e565b5f848152600260205260409020548067ffffffffffffffff811115610c0e57610c0e6113fa565b604051908082528060200260200182016040528015610c4157816020015b6060815260200190600190039081610c2c5790505b5093508067ffffffffffffffff811115610c5d57610c5d6113fa565b604051908082528060200260200182016040528015610c9057816020015b6060815260200190600190039081610c7b5790505b5092508067ffffffffffffffff811115610cac57610cac6113fa565b604051908082528060200260200182016040528015610cdf57816020015b6060815260200190600190039081610cca5790505b5091505f5b81811015610f24575f868152600260205260408120805483908110610d0b57610d0b6118e5565b905f5260205f2090600302019050805f018054610d27906116d0565b80601f0160208091040260200160405190810160405280929190818152602001828054610d53906116d0565b8015610d9e5780601f10610d7557610100808354040283529160200191610d9e565b820191905f5260205f20905b815481529060010190602001808311610d8157829003601f168201915b5050505050868381518110610db557610db56118e5565b6020026020010181905250806001018054610dcf906116d0565b80601f0160208091040260200160405190810160405280929190818152602001828054610dfb906116d0565b8015610e465780601f10610e1d57610100808354040283529160200191610e46565b820191905f5260205f20905b815481529060010190602001808311610e2957829003601f168201915b5050505050858381518110610e5d57610e5d6118e5565b6020026020010181905250806002018054610e77906116d0565b80601f0160208091040260200160405190810160405280929190818152602001828054610ea3906116d0565b8015610eee5780601f10610ec557610100808354040283529160200191610eee565b820191905f5260205f20905b815481529060010190602001808311610ed157829003601f168201915b5050505050848381518110610f0557610f056118e5565b6020026020010181905250508080610f1c906118f9565b915050610ce4565b50509193909250565b5f546001600160a01b03163314610f565760405162461bcd60e51b815260040161041e90611708565b335f90815260036020526040902054610f7190601e9061175e565b4211610f8f5760405162461bcd60e51b815260040161041e90611777565b610f9a846001541190565b610fdc5760405162461bcd60e51b8152602060048201526013602482015272111c9d59c8191bd95cc81b9bdd08195e1a5cdd606a1b604482015260640161041e565b5f83116110275760405162461bcd60e51b81526020600482015260196024820152785175616e74697479206d75737420626520706f73697469766560381b604482015260640161041e565b5f821161106f5760405162461bcd60e51b81526020600482015260166024820152755072696365206d75737420626520706f73697469766560501b604482015260640161041e565b5f60018581548110611083576110836118e5565b5f918252602090912060069091020160018101859055600281018490559050600381016110b083826117f2565b5050335f90815260036020526040902042905550505050565b600181815481106110d8575f80fd5b905f5260205f2090600602015f91509050805f0180546110f7906116d0565b80601f0160208091040260200160405190810160405280929190818152602001828054611123906116d0565b801561116e5780601f106111455761010080835404028352916020019161116e565b820191905f5260205f20905b81548152906001019060200180831161115157829003601f168201915b50505050509080600101549080600201549080600301805461118f906116d0565b80601f01602080910402602001604051908101604052809291908181526020018280546111bb906116d0565b80156112065780601f106111dd57610100808354040283529160200191611206565b820191905f5260205f20905b8154815290600101906020018083116111e957829003601f168201915b50505050509080600401805461121b906116d0565b80601f0160208091040260200160405190810160405280929190818152602001828054611247906116d0565b80156112925780601f1061126957610100808354040283529160200191611292565b820191905f5260205f20905b81548152906001019060200180831161127557829003601f168201915b5050505050908060050180546112a7906116d0565b80601f01602080910402602001604051908101604052809291908181526020018280546112d3906116d0565b801561131e5780601f106112f55761010080835404028352916020019161131e565b820191905f5260205f20905b81548152906001019060200180831161130157829003601f168201915b5050505050905086565b5f60208284031215611338575f80fd5b81356001600160a01b038116811461134e575f80fd5b9392505050565b5f8060408385031215611366575f80fd5b50508035926020909101359150565b5f81518084525f5b818110156113995760208185018101518683018201520161137d565b505f602082860101526020601f19601f83011685010191505092915050565b606081525f6113ca6060830186611375565b82810360208401526113dc8186611375565b905082810360408401526113f08185611375565b9695505050505050565b634e487b7160e01b5f52604160045260245ffd5b5f82601f83011261141d575f80fd5b813567ffffffffffffffff80821115611438576114386113fa565b604051601f8301601f19908116603f01168101908282118183101715611460576114606113fa565b81604052838152866020858801011115611478575f80fd5b836020870160208301375f602085830101528094505050505092915050565b5f805f80608085870312156114aa575f80fd5b843567ffffffffffffffff808211156114c1575f80fd5b6114cd8883890161140e565b9550602087013594506040870135935060608701359150808211156114f0575f80fd5b506114fd8782880161140e565b91505092959194509250565b5f805f806080858703121561151c575f80fd5b84359350602085013567ffffffffffffffff8082111561153a575f80fd5b6115468883890161140e565b9450604087013591508082111561155b575f80fd5b6115678883890161140e565b935060608701359150808211156114f0575f80fd5b5f6020828403121561158c575f80fd5b5035919050565b60c081525f6115a560c0830189611375565b87602084015286604084015282810360608401526115c38187611375565b905082810360808401526115d78186611375565b905082810360a08401526115eb8185611375565b9998505050505050505050565b5f82825180855260208086019550808260051b8401018186015f5b8481101561164157601f1986840301895261162f838351611375565b98840198925090830190600101611613565b5090979650505050505050565b606081525f61166060608301866115f8565b828103602084015261167281866115f8565b905082810360408401526113f081856115f8565b5f805f8060808587031215611699575f80fd5b843593506020850135925060408501359150606085013567ffffffffffffffff8111156116c4575f80fd5b6114fd8782880161140e565b600181811c908216806116e457607f821691505b60208210810361170257634e487b7160e01b5f52602260045260245ffd5b50919050565b60208082526022908201527f4f6e6c792061646d696e2063616e20706572666f726d2074686973206163746960408201526137b760f11b606082015260800190565b634e487b7160e01b5f52601160045260245ffd5b808201808211156117715761177161174a565b92915050565b6020808252601390820152721058dd1a5bdb881d1bdbc8199c995c5d595b9d606a1b604082015260600190565b601f8211156117ed575f81815260208120601f850160051c810160208610156117ca5750805b601f850160051c820191505b818110156117e9578281556001016117d6565b5050505b505050565b815167ffffffffffffffff81111561180c5761180c6113fa565b6118208161181a84546116d0565b846117a4565b602080601f831160018114611853575f841561183c5750858301515b5f19600386901b1c1916600185901b1785556117e9565b5f85815260208120601f198616915b8281101561188157888601518255948401946001909101908401611862565b508582101561189e57878501515f19600388901b60f8161c191681555b5050505050600190811b01905550565b818103818111156117715761177161174a565b606081525f6118d36060830186611375565b60208301949094525060400152919050565b634e487b7160e01b5f52603260045260245ffd5b5f6001820161190a5761190a61174a565b506001019056fea26469706673582212200bd6795eb24ed747e2816421e5c8db19239ec524e3460fd2759b136b89f8a7ba64736f6c63430008150033",
  "immutableReferences": {},
  "source": "// SPDX-License-Identifier: MIT\r\npragma solidity ^0.8.21;\r\n\r\ncontract TestContract {\r\n    address public admin;\r\n\r\n    event DrugAdded(uint indexed drugId, string name, uint quantity, uint price);\r\n    event TracingInfoAdded(uint indexed drugId, string tracingType, string details, string date);\r\n\r\n    constructor() {\r\n        admin = msg.sender;\r\n    }\r\n\r\n    struct Drug {\r\n        string name;\r\n        uint quantity;\r\n        uint price;\r\n        string description;\r\n        string lastUpdateDate;\r\n        string currentTracingDetails;\r\n    }\r\n\r\n    struct Tracing {\r\n        string tracingType;\r\n        string tracingDetails;\r\n        string date;\r\n    }\r\n\r\n    Drug[] public drugs;\r\n    mapping(uint => Tracing[]) public drugTracings;\r\n    mapping(address => uint) public lastActionTime;\r\n    uint public constant ACTION_DELAY = 30 seconds;\r\n\r\n    modifier onlyAdmin() {\r\n        require(msg.sender == admin, \"Only admin can perform this action\");\r\n        _;\r\n    }\r\n\r\n    modifier rateLimit() {\r\n        require(block.timestamp > lastActionTime[msg.sender] + ACTION_DELAY, \"Action too frequent\");\r\n        _;\r\n        lastActionTime[msg.sender] = block.timestamp;\r\n    }\r\n\r\n    function drugExists(uint drugId) public view returns (bool) {\r\n        return drugId < drugs.length;\r\n    }\r\n\r\n    function addDrug(\r\n        string memory name, \r\n        uint quantity, \r\n        uint price, \r\n        string memory description\r\n    ) public onlyAdmin rateLimit {\r\n        require(bytes(name).length > 0, \"Name cannot be empty\");\r\n        require(quantity > 0, \"Quantity must be positive\");\r\n        require(price > 0, \"Price must be positive\");\r\n        \r\n        drugs.push(Drug(name, quantity, price, description, \"\", \"\"));\r\n        emit DrugAdded(drugs.length - 1, name, quantity, price);\r\n    }\r\n\r\n    function updateDrug(\r\n        uint drugId,\r\n        uint newQuantity,\r\n        uint newPrice,\r\n        string memory newDescription\r\n    ) public onlyAdmin rateLimit {\r\n        require(drugExists(drugId), \"Drug does not exist\");\r\n        require(newQuantity > 0, \"Quantity must be positive\");\r\n        require(newPrice > 0, \"Price must be positive\");\r\n        \r\n        Drug storage drug = drugs[drugId];\r\n        drug.quantity = newQuantity;\r\n        drug.price = newPrice;\r\n        drug.description = newDescription;\r\n    }\r\n\r\n    function getDrugCount() public view returns (uint) {\r\n        return drugs.length;\r\n    }\r\n\r\n    function getDrug(uint index) public view returns (\r\n        string memory name,\r\n        uint quantity,\r\n        uint price,\r\n        string memory description,\r\n        string memory lastUpdateDate,\r\n        string memory currentTracingDetails\r\n    ) {\r\n        Drug storage drug = drugs[index];\r\n        return (\r\n            drug.name,\r\n            drug.quantity,\r\n            drug.price,\r\n            drug.description,\r\n            drug.lastUpdateDate,\r\n            drug.currentTracingDetails\r\n        );\r\n    }\r\n\r\n    function addTracingInfo(\r\n        uint drugId,\r\n        string memory tracingType,\r\n        string memory tracingDetails,\r\n        string memory date\r\n    ) public onlyAdmin rateLimit {\r\n        require(drugExists(drugId), \"Invalid Drug ID\");\r\n        require(bytes(tracingType).length > 0, \"Tracing type cannot be empty\");\r\n        require(bytes(tracingDetails).length > 0, \"Details cannot be empty\");\r\n        require(bytes(date).length > 0, \"Date cannot be empty\");\r\n\r\n        drugTracings[drugId].push(Tracing(tracingType, tracingDetails, date));\r\n        drugs[drugId].lastUpdateDate = date;\r\n        drugs[drugId].currentTracingDetails = tracingDetails;\r\n        emit TracingInfoAdded(drugId, tracingType, tracingDetails, date);\r\n    }\r\n\r\n    function getTracingInfo(uint drugId) public view returns (\r\n        string[] memory types,\r\n        string[] memory details,\r\n        string[] memory dates\r\n    ) {\r\n        require(drugExists(drugId), \"Drug does not exist\");\r\n        \r\n        uint count = drugTracings[drugId].length;\r\n        types = new string[](count);\r\n        details = new string[](count);\r\n        dates = new string[](count);\r\n\r\n        for (uint i = 0; i < count; i++) {\r\n            Tracing storage t = drugTracings[drugId][i];\r\n            types[i] = t.tracingType;\r\n            details[i] = t.tracingDetails;\r\n            dates[i] = t.date;\r\n        }\r\n\r\n        return (types, details, dates);\r\n    }\r\n\r\n    function getAdmin() public view returns (address) {\r\n        return admin;\r\n    }\r\n}",
  "sourcePath": "C:\\xampp\\htdocs\\smartdrug\\contracts\\TestContract.sol",
  "compiler": {
    "name": "solc",
    "version": "0.8.21+commit.d9974bed.Emscripten.clang"
  },
  "schemaVersion": "3.4.16",
  "updatedAt": "2025-04-29T00:18:28.100Z",
  "networkType": "ethereum",
  "devdoc": {
    "kind": "dev",
    "methods": {},
    "version": 1
  },
  "userdoc": {
    "kind": "user",
    "methods": {},
    "version": 1
  }
}